{
  "address": "0xF798d18aF6cBB00061f80f80AbD55F2A35E69F5F",
  "abi": [
    {
      "inputs": [
        {
          "internalType": "string",
          "name": "wasmOracleAddress_",
          "type": "string"
        }
      ],
      "stateMutability": "nonpayable",
      "type": "constructor"
    },
    {
      "inputs": [],
      "name": "AddrPrecompile",
      "outputs": [
        {
          "internalType": "contract IAddr",
          "name": "",
          "type": "address"
        }
      ],
      "stateMutability": "view",
      "type": "function"
    },
    {
      "inputs": [],
      "name": "BankPrecompile",
      "outputs": [
        {
          "internalType": "contract IBank",
          "name": "",
          "type": "address"
        }
      ],
      "stateMutability": "view",
      "type": "function"
    },
    {
      "inputs": [],
      "name": "JsonPrecompile",
      "outputs": [
        {
          "internalType": "contract IJson",
          "name": "",
          "type": "address"
        }
      ],
      "stateMutability": "view",
      "type": "function"
    },
    {
      "inputs": [],
      "name": "WasmdPrecompile",
      "outputs": [
        {
          "internalType": "contract IWasmd",
          "name": "",
          "type": "address"
        }
      ],
      "stateMutability": "view",
      "type": "function"
    },
    {
      "inputs": [],
      "name": "getPriceOCH",
      "outputs": [
        {
          "internalType": "uint256",
          "name": "",
          "type": "uint256"
        }
      ],
      "stateMutability": "view",
      "type": "function"
    },
    {
      "inputs": [],
      "name": "wasmOracleAddress",
      "outputs": [
        {
          "internalType": "string",
          "name": "",
          "type": "string"
        }
      ],
      "stateMutability": "view",
      "type": "function"
    }
  ],
  "transactionHash": "0xd1b9eac0bea129fe071aad43ad0f4a77e25cb2b7d6c8dd04bb2b28c092c01ebe",
  "args": [
    "orai1s57duq6h0r0q6spfdhujnn695a3e9ka59zvv0yrvx7d80gvaf4hsfkezyr"
  ],
  "numDeployments": 2,
  "solcInputHash": "49e4e018b10389f8f6e1b4d3e4f115a9",
  "bytecode": "0x60806040523461027157610a098038038061001981610276565b928339810160209182818303126102715780516001600160401b0391828211610271570191601f8181850112156102715783519383851161024857601f199461006783820187168801610276565b9381855287828401011161027157869160005b82811061025e575050906000918401015260018060a01b03199173900000000000000000000000000000000000000183600054161760005573900000000000000000000000000000000000000460019373900000000000000000000000000000000000000281865416178555739000000000000000000000000000000000000003816002541617600255600354161760035580519384116102485760049586548481811c9116801561023e575b82821014610229578381116101e3575b508092851160011461017f575083945090839291600094610174575b50501b916000199060031b1c19161790555b60405161076d908161029c8239f35b015192503880610153565b9294849081168760005284600020946000905b888383106101c957505050106101b0575b505050811b019055610165565b015160001960f88460031b161c191690553880806101a3565b858701518855909601959485019487935090810190610192565b87600052816000208480880160051c820192848910610220575b0160051c019085905b828110610214575050610137565b60008155018590610206565b925081926101fd565b602288634e487b7160e01b6000525260246000fd5b90607f1690610127565b634e487b7160e01b600052604160045260246000fd5b818101840151868201850152830161007a565b600080fd5b6040519190601f01601f191682016001600160401b038111838210176102485760405256fe608060408181526004918236101561001657600080fd5b600092833560e01c91826344c448881461041757508163566732c1146103ee578163bdc8f258146100e157508063c2aed302146100b9578063de4725cc146100915763f00b02551461006757600080fd5b3461008d578160031936011261008d57905490516001600160a01b039091168152602090f35b5080fd5b503461008d578160031936011261008d5760015490516001600160a01b039091168152602090f35b503461008d578160031936011261008d5760025490516001600160a01b039091168152602090f35b83833461008d576003199282843601126103ea578151936101018561053f565b6003855261017f61014e61015361014e61012f61012a60209a6209e86960eb1b8c8201526105db565b610615565b875161013a8161053f565b60038152626b657960e81b8b82015261064d565b610689565b855161015e8161053f565b601081526f19d95d17dc1c9a58d957d9195d185a5b60821b8982015261064d565b845484516306d81d2960e01b815280850186905284549094926001600160a01b0392889287929185169184916101b481610505565b908160448701526064600191876001821691826000146103c057505060011461035b575b5050506101f2828593928a858095030160248501526105b6565b03915afa9384156103515791879391869388966102a8575b508390600154169264707269636560d81b8661023d8451998a988997632d2ac4c160e11b895288015260448701906105b6565b858103938401602487015260058152015201915afa92831561029d578093610268575b505051908152f35b909192508382813d8311610296575b6102818183610571565b81010312610293575051908380610260565b80fd5b503d610277565b8251903d90823e3d90fd5b929450945091503d8087833e6102be8183610571565b810190878183031261034d57805167ffffffffffffffff91828211610349570182601f8201121561033257805191821161033657865192610308601f8401601f19168b0185610571565b828452898383010111610332578261032b88959386938c80809a98019101610593565b959061020a565b8780fd5b634e487b7160e01b885260418452602488fd5b8880fd5b8680fd5b85513d88823e3d90fd5b89885292935086928e7f8a35acfbc15ff81a39ae7d344fd709f28e8600b4aa8c65c6b64bfe7fe36bd19b5b8486106103a457505050509084016064019190506101f281856101d8565b80549886018301989098528e98508c979401938f908301610386565b60ff191660648083019190915294151560051b810190940195506101f29385935091506101d89050565b8280fd5b50503461008d578160031936011261008d5760035490516001600160a01b039091168152602090f35b9083853461029357806003193601126102935780849190845461043981610505565b91828552602096600192886001821691826000146104db575050600114610480575b858861047c8961046d848a0385610571565b519282849384528301906105b6565b0390f35b815286935091907f8a35acfbc15ff81a39ae7d344fd709f28e8600b4aa8c65c6b64bfe7fe36bd19b5b8284106104c3575050508201018161046d61047c8861045b565b8054848a0186015288955087949093019281016104a9565b60ff19168882015294151560051b8701909401945085935061046d925061047c915089905061045b565b90600182811c92168015610535575b602083101461051f57565b634e487b7160e01b600052602260045260246000fd5b91607f1691610514565b6040810190811067ffffffffffffffff82111761055b57604052565b634e487b7160e01b600052604160045260246000fd5b90601f8019910116810190811067ffffffffffffffff82111761055b57604052565b60005b8381106105a65750506000910152565b8181015183820152602001610596565b906020916105cf81518092818552858086019101610593565b601f01601f1916010190565b906106136021604051846105f9829651809260208086019101610593565b8101601160f91b6020820152036001810185520183610571565b565b9061061360216040518094601160f91b602083015261063d8151809260208686019101610593565b8101036001810185520183610571565b9061068061066061012a610686946105db565b9160405161066d8161053f565b60018152601d60f91b60208201526106f6565b906106f6565b90565b61068660216106e692604051906106ca838360206106b08183019586815193849201610593565b8101607d60f81b6020820152036001810185520183610571565b604051948592607b60f81b602085015251809285850190610593565b8101036001810184520182610571565b60206106139193929360405194816107178793518092868087019101610593565b820161072b82518093868085019101610593565b0103808552018361057156fea26469706673582212200181fe4a43ab6cdeb3b003f464ca3fa80b2ef489ea18d3011d8f69a5c6c4154864736f6c63430008180033",
  "devdoc": {
    "kind": "dev",
    "methods": {},
    "version": 1
  },
  "userdoc": {
    "kind": "user",
    "methods": {},
    "version": 1
  },
  "storageLayout": {
    "storage": [
      {
        "astId": 5728,
        "contract": "contracts/PriceOracle.sol:PriceOracle",
        "label": "WasmdPrecompile",
        "offset": 0,
        "slot": "0",
        "type": "t_contract(IWasmd)6098"
      },
      {
        "astId": 5731,
        "contract": "contracts/PriceOracle.sol:PriceOracle",
        "label": "JsonPrecompile",
        "offset": 0,
        "slot": "1",
        "type": "t_contract(IJson)6049"
      },
      {
        "astId": 5734,
        "contract": "contracts/PriceOracle.sol:PriceOracle",
        "label": "AddrPrecompile",
        "offset": 0,
        "slot": "2",
        "type": "t_contract(IAddr)5949"
      },
      {
        "astId": 5737,
        "contract": "contracts/PriceOracle.sol:PriceOracle",
        "label": "BankPrecompile",
        "offset": 0,
        "slot": "3",
        "type": "t_contract(IBank)6009"
      },
      {
        "astId": 5739,
        "contract": "contracts/PriceOracle.sol:PriceOracle",
        "label": "wasmOracleAddress",
        "offset": 0,
        "slot": "4",
        "type": "t_string_storage"
      }
    ],
    "types": {
      "t_contract(IAddr)5949": {
        "encoding": "inplace",
        "label": "contract IAddr",
        "numberOfBytes": "20"
      },
      "t_contract(IBank)6009": {
        "encoding": "inplace",
        "label": "contract IBank",
        "numberOfBytes": "20"
      },
      "t_contract(IJson)6049": {
        "encoding": "inplace",
        "label": "contract IJson",
        "numberOfBytes": "20"
      },
      "t_contract(IWasmd)6098": {
        "encoding": "inplace",
        "label": "contract IWasmd",
        "numberOfBytes": "20"
      },
      "t_string_storage": {
        "encoding": "bytes",
        "label": "string",
        "numberOfBytes": "32"
      }
    }
  }
}